{
    "_format": "hh-sol-artifact-1",
    "contractName": "NFTContract",
    "sourceName": "contracts/NFTContract.sol",
    "abi": [
        {
            "inputs": [],
            "stateMutability": "nonpayable",
            "type": "constructor"
        },
        {
            "anonymous": false,
            "inputs": [
                {
                    "indexed": true,
                    "internalType": "address",
                    "name": "owner",
                    "type": "address"
                },
                {
                    "indexed": true,
                    "internalType": "address",
                    "name": "approved",
                    "type": "address"
                },
                {
                    "indexed": true,
                    "internalType": "uint256",
                    "name": "tokenId",
                    "type": "uint256"
                }
            ],
            "name": "Approval",
            "type": "event"
        },
        {
            "anonymous": false,
            "inputs": [
                {
                    "indexed": true,
                    "internalType": "address",
                    "name": "owner",
                    "type": "address"
                },
                {
                    "indexed": true,
                    "internalType": "address",
                    "name": "operator",
                    "type": "address"
                },
                {
                    "indexed": false,
                    "internalType": "bool",
                    "name": "approved",
                    "type": "bool"
                }
            ],
            "name": "ApprovalForAll",
            "type": "event"
        },
        {
            "anonymous": false,
            "inputs": [
                {
                    "indexed": true,
                    "internalType": "address",
                    "name": "from",
                    "type": "address"
                },
                {
                    "indexed": true,
                    "internalType": "address",
                    "name": "to",
                    "type": "address"
                },
                {
                    "indexed": true,
                    "internalType": "uint256",
                    "name": "tokenId",
                    "type": "uint256"
                }
            ],
            "name": "Transfer",
            "type": "event"
        },
        {
            "inputs": [
                {
                    "internalType": "address",
                    "name": "to",
                    "type": "address"
                },
                {
                    "internalType": "uint256",
                    "name": "tokenId",
                    "type": "uint256"
                }
            ],
            "name": "approve",
            "outputs": [],
            "stateMutability": "nonpayable",
            "type": "function"
        },
        {
            "inputs": [
                {
                    "internalType": "address",
                    "name": "owner",
                    "type": "address"
                }
            ],
            "name": "balanceOf",
            "outputs": [
                {
                    "internalType": "uint256",
                    "name": "",
                    "type": "uint256"
                }
            ],
            "stateMutability": "view",
            "type": "function"
        },
        {
            "inputs": [
                {
                    "internalType": "uint256",
                    "name": "tokenId",
                    "type": "uint256"
                }
            ],
            "name": "getApproved",
            "outputs": [
                {
                    "internalType": "address",
                    "name": "",
                    "type": "address"
                }
            ],
            "stateMutability": "view",
            "type": "function"
        },
        {
            "inputs": [
                {
                    "internalType": "address",
                    "name": "owner",
                    "type": "address"
                },
                {
                    "internalType": "address",
                    "name": "operator",
                    "type": "address"
                }
            ],
            "name": "isApprovedForAll",
            "outputs": [
                {
                    "internalType": "bool",
                    "name": "",
                    "type": "bool"
                }
            ],
            "stateMutability": "view",
            "type": "function"
        },
        {
            "inputs": [],
            "name": "makeNFT",
            "outputs": [],
            "stateMutability": "nonpayable",
            "type": "function"
        },
        {
            "inputs": [],
            "name": "name",
            "outputs": [
                {
                    "internalType": "string",
                    "name": "",
                    "type": "string"
                }
            ],
            "stateMutability": "view",
            "type": "function"
        },
        {
            "inputs": [
                {
                    "internalType": "uint256",
                    "name": "tokenId",
                    "type": "uint256"
                }
            ],
            "name": "ownerOf",
            "outputs": [
                {
                    "internalType": "address",
                    "name": "",
                    "type": "address"
                }
            ],
            "stateMutability": "view",
            "type": "function"
        },
        {
            "inputs": [
                {
                    "internalType": "uint256",
                    "name": "tokenId",
                    "type": "uint256"
                },
                {
                    "internalType": "string[]",
                    "name": "wordArray",
                    "type": "string[]"
                }
            ],
            "name": "pickRandomWordFromList",
            "outputs": [
                {
                    "internalType": "string",
                    "name": "",
                    "type": "string"
                }
            ],
            "stateMutability": "pure",
            "type": "function"
        },
        {
            "inputs": [
                {
                    "internalType": "address",
                    "name": "from",
                    "type": "address"
                },
                {
                    "internalType": "address",
                    "name": "to",
                    "type": "address"
                },
                {
                    "internalType": "uint256",
                    "name": "tokenId",
                    "type": "uint256"
                }
            ],
            "name": "safeTransferFrom",
            "outputs": [],
            "stateMutability": "nonpayable",
            "type": "function"
        },
        {
            "inputs": [
                {
                    "internalType": "address",
                    "name": "from",
                    "type": "address"
                },
                {
                    "internalType": "address",
                    "name": "to",
                    "type": "address"
                },
                {
                    "internalType": "uint256",
                    "name": "tokenId",
                    "type": "uint256"
                },
                {
                    "internalType": "bytes",
                    "name": "_data",
                    "type": "bytes"
                }
            ],
            "name": "safeTransferFrom",
            "outputs": [],
            "stateMutability": "nonpayable",
            "type": "function"
        },
        {
            "inputs": [
                {
                    "internalType": "address",
                    "name": "operator",
                    "type": "address"
                },
                {
                    "internalType": "bool",
                    "name": "approved",
                    "type": "bool"
                }
            ],
            "name": "setApprovalForAll",
            "outputs": [],
            "stateMutability": "nonpayable",
            "type": "function"
        },
        {
            "inputs": [
                {
                    "internalType": "bytes4",
                    "name": "interfaceId",
                    "type": "bytes4"
                }
            ],
            "name": "supportsInterface",
            "outputs": [
                {
                    "internalType": "bool",
                    "name": "",
                    "type": "bool"
                }
            ],
            "stateMutability": "view",
            "type": "function"
        },
        {
            "inputs": [],
            "name": "symbol",
            "outputs": [
                {
                    "internalType": "string",
                    "name": "",
                    "type": "string"
                }
            ],
            "stateMutability": "view",
            "type": "function"
        },
        {
            "inputs": [
                {
                    "internalType": "uint256",
                    "name": "tokenId",
                    "type": "uint256"
                }
            ],
            "name": "tokenURI",
            "outputs": [
                {
                    "internalType": "string",
                    "name": "",
                    "type": "string"
                }
            ],
            "stateMutability": "view",
            "type": "function"
        },
        {
            "inputs": [
                {
                    "internalType": "address",
                    "name": "from",
                    "type": "address"
                },
                {
                    "internalType": "address",
                    "name": "to",
                    "type": "address"
                },
                {
                    "internalType": "uint256",
                    "name": "tokenId",
                    "type": "uint256"
                }
            ],
            "name": "transferFrom",
            "outputs": [],
            "stateMutability": "nonpayable",
            "type": "function"
        }
    ],
    "bytecode": "0x608060405260405180610160016040528061012f8152602001620045b661012f913960089080519060200190620000389291906200090a565b506040518061014001604052806040518060400160405280600f81526020017f71756164726967656e6172696f7573000000000000000000000000000000000081525081526020016040518060400160405280600781526020017f616c65636f73740000000000000000000000000000000000000000000000000081525081526020016040518060400160405280600481526020017f6d6f79610000000000000000000000000000000000000000000000000000000081525081526020016040518060400160405280600a81526020017f766572736963756c61720000000000000000000000000000000000000000000081525081526020016040518060400160405280600a81526020017f6172746963756c6174650000000000000000000000000000000000000000000081525081526020016040518060400160405280600b81526020017f6361726e69766f726f757300000000000000000000000000000000000000000081525081526020016040518060400160405280600981526020017f6465636964756f7573000000000000000000000000000000000000000000000081525081526020016040518060400160405280600881526020017f746572746961727900000000000000000000000000000000000000000000000081525081526020016040518060400160405280600b81526020017f656c656d656d6e7461727900000000000000000000000000000000000000000081525081526020016040518060400160405280600781526020017f7175616e74756d00000000000000000000000000000000000000000000000000815250815250600990600a620002a39291906200099b565b506040518061016001604052806040518060400160405280600881526020017f736f72636572657200000000000000000000000000000000000000000000000081525081526020016040518060400160405280600781526020017f7363686f6c61720000000000000000000000000000000000000000000000000081525081526020016040518060400160405280600881526020017f61636164656d696300000000000000000000000000000000000000000000000081525081526020016040518060400160405280600481526020017f6d6f6e6b0000000000000000000000000000000000000000000000000000000081525081526020016040518060400160405280600981526020017f617263686974656374000000000000000000000000000000000000000000000081525081526020016040518060400160405280600581526020017f647761726600000000000000000000000000000000000000000000000000000081525081526020016040518060400160405280600881526020017f6d61726b736d656e00000000000000000000000000000000000000000000000081525081526020016040518060400160405280600981526020017f61737361696c616e74000000000000000000000000000000000000000000000081525081526020016040518060400160405280600781526020017f6d6172717569730000000000000000000000000000000000000000000000000081525081526020016040518060400160405280600a81526020017f73776f7264736d6974680000000000000000000000000000000000000000000081525081526020016040518060400160405280600881526020017f766973636f756e74000000000000000000000000000000000000000000000000815250815250600a90600b6200054992919062000a02565b506040518061010001604052806040518060400160405280600781526020017f73757072656d650000000000000000000000000000000000000000000000000081525081526020016040518060400160405280600881526020017f6f7665726c6f726400000000000000000000000000000000000000000000000081525081526020016040518060400160405280600481526020017f6d6167650000000000000000000000000000000000000000000000000000000081525081526020016040518060400160405280600881526020017f646566656e64657200000000000000000000000000000000000000000000000081525081526020016040518060400160405280600981526020017f6d657263656e617279000000000000000000000000000000000000000000000081525081526020016040518060400160405280600881526020017f6d61726b736d656e00000000000000000000000000000000000000000000000081525081526020016040518060400160405280600a81526020017f627261766568656172740000000000000000000000000000000000000000000081525081526020016040518060400160405280600981526020017f70726f746563746f720000000000000000000000000000000000000000000000815250815250600b9060086200073e92919062000a69565b503480156200074c57600080fd5b506040518060400160405280600981526020017f5371756172654e465400000000000000000000000000000000000000000000008152506040518060400160405280600681526020017f53515541524500000000000000000000000000000000000000000000000000008152508160009080519060200190620007d19291906200090a565b508060019080519060200190620007ea9291906200090a565b505050620008386040518060400160405280601881526020017f5468697320697320616e204e465420636f6e74726163742e00000000000000008152506200083e60201b62000fe01760201c565b62000c8a565b620008de8160405160240162000855919062000b9e565b6040516020818303038152906040527f41304fac000000000000000000000000000000000000000000000000000000007bffffffffffffffffffffffffffffffffffffffffffffffffffffffff19166020820180517bffffffffffffffffffffffffffffffffffffffffffffffffffffffff8381831617835250505050620008e160201b60201c565b50565b60008151905060006a636f6e736f6c652e6c6f679050602083016000808483855afa5050505050565b828054620009189062000c14565b90600052602060002090601f0160209004810192826200093c576000855562000988565b82601f106200095757805160ff191683800117855562000988565b8280016001018555821562000988579182015b82811115620009875782518255916020019190600101906200096a565b5b50905062000997919062000ad0565b5090565b828054828255906000526020600020908101928215620009ef579160200282015b82811115620009ee578251829080519060200190620009dd9291906200090a565b5091602001919060010190620009bc565b5b509050620009fe919062000aef565b5090565b82805482825590600052602060002090810192821562000a56579160200282015b8281111562000a5557825182908051906020019062000a449291906200090a565b509160200191906001019062000a23565b5b50905062000a65919062000aef565b5090565b82805482825590600052602060002090810192821562000abd579160200282015b8281111562000abc57825182908051906020019062000aab9291906200090a565b509160200191906001019062000a8a565b5b50905062000acc919062000aef565b5090565b5b8082111562000aeb57600081600090555060010162000ad1565b5090565b5b8082111562000b13576000818162000b09919062000b17565b5060010162000af0565b5090565b50805462000b259062000c14565b6000825580601f1062000b39575062000b5a565b601f01602090049060005260206000209081019062000b59919062000ad0565b5b50565b600062000b6a8262000bc2565b62000b76818562000bcd565b935062000b8881856020860162000bde565b62000b938162000c79565b840191505092915050565b6000602082019050818103600083015262000bba818462000b5d565b905092915050565b600081519050919050565b600082825260208201905092915050565b60005b8381101562000bfe57808201518184015260208101905062000be1565b8381111562000c0e576000848401525b50505050565b6000600282049050600182168062000c2d57607f821691505b6020821081141562000c445762000c4362000c4a565b5b50919050565b7f4e487b7100000000000000000000000000000000000000000000000000000000600052602260045260246000fd5b6000601f19601f8301169050919050565b61391c8062000c9a6000396000f3fe608060405234801561001057600080fd5b50600436106100f55760003560e01c806370a0823111610097578063b036b4bd11610066578063b036b4bd14610296578063b88d4fde146102a0578063c87b56dd146102bc578063e985e9c5146102ec576100f5565b806370a08231146101fc57806395d89b411461022c578063a22cb4651461024a578063a9de53c414610266576100f5565b8063095ea7b3116100d3578063095ea7b31461017857806323b872dd1461019457806342842e0e146101b05780636352211e146101cc576100f5565b806301ffc9a7146100fa57806306fdde031461012a578063081812fc14610148575b600080fd5b610114600480360381019061010f919061253e565b61031c565b60405161012191906130b0565b60405180910390f35b6101326103fe565b60405161013f91906130cb565b60405180910390f35b610162600480360381019061015d9190612590565b610490565b60405161016f9190613049565b60405180910390f35b610192600480360381019061018d9190612502565b610515565b005b6101ae60048036038101906101a991906123fc565b61062d565b005b6101ca60048036038101906101c591906123fc565b61068d565b005b6101e660048036038101906101e19190612590565b6106ad565b6040516101f39190613049565b60405180910390f35b61021660048036038101906102119190612397565b61075f565b604051610223919061338c565b60405180910390f35b610234610817565b60405161024191906130cb565b60405180910390f35b610264600480360381019061025f91906124c6565b6108a9565b005b610280600480360381019061027b91906125b9565b6108bf565b60405161028d91906130cb565b60405180910390f35b61029e610950565b005b6102ba60048036038101906102b5919061244b565b610d98565b005b6102d660048036038101906102d19190612590565b610dfa565b6040516102e391906130cb565b60405180910390f35b610306600480360381019061030191906123c0565b610f4c565b60405161031391906130b0565b60405180910390f35b60007f80ac58cd000000000000000000000000000000000000000000000000000000007bffffffffffffffffffffffffffffffffffffffffffffffffffffffff1916827bffffffffffffffffffffffffffffffffffffffffffffffffffffffff191614806103e757507f5b5e139f000000000000000000000000000000000000000000000000000000007bffffffffffffffffffffffffffffffffffffffffffffffffffffffff1916827bffffffffffffffffffffffffffffffffffffffffffffffffffffffff1916145b806103f757506103f682611079565b5b9050919050565b60606000805461040d90613687565b80601f016020809104026020016040519081016040528092919081815260200182805461043990613687565b80156104865780601f1061045b57610100808354040283529160200191610486565b820191906000526020600020905b81548152906001019060200180831161046957829003601f168201915b5050505050905090565b600061049b826110e3565b6104da576040517f08c379a00000000000000000000000000000000000000000000000000000000081526004016104d1906132ec565b60405180910390fd5b6004600083815260200190815260200160002060009054906101000a900473ffffffffffffffffffffffffffffffffffffffff169050919050565b6000610520826106ad565b90508073ffffffffffffffffffffffffffffffffffffffff168373ffffffffffffffffffffffffffffffffffffffff161415610591576040517f08c379a00000000000000000000000000000000000000000000000000000000081526004016105889061334c565b60405180910390fd5b8073ffffffffffffffffffffffffffffffffffffffff166105b061114f565b73ffffffffffffffffffffffffffffffffffffffff1614806105df57506105de816105d961114f565b610f4c565b5b61061e576040517f08c379a00000000000000000000000000000000000000000000000000000000081526004016106159061322c565b60405180910390fd5b6106288383611157565b505050565b61063e61063861114f565b82611210565b61067d576040517f08c379a00000000000000000000000000000000000000000000000000000000081526004016106749061336c565b60405180910390fd5b6106888383836112ee565b505050565b6106a883838360405180602001604052806000815250610d98565b505050565b6000806002600084815260200190815260200160002060009054906101000a900473ffffffffffffffffffffffffffffffffffffffff169050600073ffffffffffffffffffffffffffffffffffffffff168173ffffffffffffffffffffffffffffffffffffffff161415610756576040517f08c379a000000000000000000000000000000000000000000000000000000000815260040161074d9061326c565b60405180910390fd5b80915050919050565b60008073ffffffffffffffffffffffffffffffffffffffff168273ffffffffffffffffffffffffffffffffffffffff1614156107d0576040517f08c379a00000000000000000000000000000000000000000000000000000000081526004016107c79061324c565b60405180910390fd5b600360008373ffffffffffffffffffffffffffffffffffffffff1673ffffffffffffffffffffffffffffffffffffffff168152602001908152602001600020549050919050565b60606001805461082690613687565b80601f016020809104026020016040519081016040528092919081815260200182805461085290613687565b801561089f5780601f106108745761010080835404028352916020019161089f565b820191906000526020600020905b81548152906001019060200180831161088257829003601f168201915b5050505050905090565b6108bb6108b461114f565b838361154a565b5050565b606060006108cc846116b7565b6040516020016108dc9190612fc0565b6040516020818303038152906040528051906020012060001c90508251816109049190613702565b905082818151811061093f577f4e487b7100000000000000000000000000000000000000000000000000000000600052603260045260246000fd5b602002602001015191505092915050565b600061095c6007611864565b90506000610a3b826009805480602002602001604051908101604052809291908181526020016000905b82821015610a325783829060005260206000200180546109a590613687565b80601f01602080910402602001604051908101604052809291908181526020018280546109d190613687565b8015610a1e5780601f106109f357610100808354040283529160200191610a1e565b820191906000526020600020905b815481529060010190602001808311610a0157829003601f168201915b505050505081526020019060010190610986565b505050506108bf565b90506000610b1a83600a805480602002602001604051908101604052809291908181526020016000905b82821015610b11578382906000526020600020018054610a8490613687565b80601f0160208091040260200160405190810160405280929190818152602001828054610ab090613687565b8015610afd5780601f10610ad257610100808354040283529160200191610afd565b820191906000526020600020905b815481529060010190602001808311610ae057829003601f168201915b505050505081526020019060010190610a65565b505050506108bf565b90506000610bf984600b805480602002602001604051908101604052809291908181526020016000905b82821015610bf0578382906000526020600020018054610b6390613687565b80601f0160208091040260200160405190810160405280929190818152602001828054610b8f90613687565b8015610bdc5780601f10610bb157610100808354040283529160200191610bdc565b820191906000526020600020905b815481529060010190602001808311610bbf57829003601f168201915b505050505081526020019060010190610b44565b505050506108bf565b9050610c1f60405180606001604052806025815260200161388260259139848484611872565b6000838383604051602001610c3693929190612f60565b60405160208183030381529060405290506000600882604051602001610c5d929190612f91565b6040516020818303038152906040529050610cac6040518060400160405280601581526020017f0a2d2d2d2d2d2d2d2d2d2d2d2d2d2d2d2d2d2d2d2d0000000000000000000000815250610fe0565b610cb581610fe0565b610cf36040518060400160405280601581526020017f2d2d2d2d2d2d2d2d2d2d2d2d2d2d2d2d2d2d2d2d0a0000000000000000000000815250610fe0565b6000610d2783610d0284611914565b604051602001610d13929190612fe2565b604051602081830303815290604052611914565b9050600081604051602001610d3c9190613027565b6040516020818303038152906040529050610d573389611ad2565b610d618882611af0565b610d8460405180606001604052806025815260200161385d602591398933611b64565b610d8e6007611c03565b5050505050505050565b610da9610da361114f565b83611210565b610de8576040517f08c379a0000000000000000000000000000000000000000000000000000000008152600401610ddf9061336c565b60405180910390fd5b610df484848484611c19565b50505050565b6060610e05826110e3565b610e44576040517f08c379a0000000000000000000000000000000000000000000000000000000008152600401610e3b906132cc565b60405180910390fd5b6000600660008481526020019081526020016000208054610e6490613687565b80601f0160208091040260200160405190810160405280929190818152602001828054610e9090613687565b8015610edd5780601f10610eb257610100808354040283529160200191610edd565b820191906000526020600020905b815481529060010190602001808311610ec057829003601f168201915b505050505090506000610eee611c75565b9050600081511415610f04578192505050610f47565b600082511115610f39578082604051602001610f21929190612f3c565b60405160208183030381529060405292505050610f47565b610f4284611c8c565b925050505b919050565b6000600560008473ffffffffffffffffffffffffffffffffffffffff1673ffffffffffffffffffffffffffffffffffffffff16815260200190815260200160002060008373ffffffffffffffffffffffffffffffffffffffff1673ffffffffffffffffffffffffffffffffffffffff16815260200190815260200160002060009054906101000a900460ff16905092915050565b61107681604051602401610ff491906130cb565b6040516020818303038152906040527f41304fac000000000000000000000000000000000000000000000000000000007bffffffffffffffffffffffffffffffffffffffffffffffffffffffff19166020820180517bffffffffffffffffffffffffffffffffffffffffffffffffffffffff8381831617835250505050611d33565b50565b60007f01ffc9a7000000000000000000000000000000000000000000000000000000007bffffffffffffffffffffffffffffffffffffffffffffffffffffffff1916827bffffffffffffffffffffffffffffffffffffffffffffffffffffffff1916149050919050565b60008073ffffffffffffffffffffffffffffffffffffffff166002600084815260200190815260200160002060009054906101000a900473ffffffffffffffffffffffffffffffffffffffff1673ffffffffffffffffffffffffffffffffffffffff1614159050919050565b600033905090565b816004600083815260200190815260200160002060006101000a81548173ffffffffffffffffffffffffffffffffffffffff021916908373ffffffffffffffffffffffffffffffffffffffff160217905550808273ffffffffffffffffffffffffffffffffffffffff166111ca836106ad565b73ffffffffffffffffffffffffffffffffffffffff167f8c5be1e5ebec7d5bd14f71427d1e84f3dd0314c0f7b2291e5b200ac8c7c3b92560405160405180910390a45050565b600061121b826110e3565b61125a576040517f08c379a00000000000000000000000000000000000000000000000000000000081526004016112519061320c565b60405180910390fd5b6000611265836106ad565b90508073ffffffffffffffffffffffffffffffffffffffff168473ffffffffffffffffffffffffffffffffffffffff1614806112d457508373ffffffffffffffffffffffffffffffffffffffff166112bc84610490565b73ffffffffffffffffffffffffffffffffffffffff16145b806112e557506112e48185610f4c565b5b91505092915050565b8273ffffffffffffffffffffffffffffffffffffffff1661130e826106ad565b73ffffffffffffffffffffffffffffffffffffffff1614611364576040517f08c379a000000000000000000000000000000000000000000000000000000000815260040161135b9061330c565b60405180910390fd5b600073ffffffffffffffffffffffffffffffffffffffff168273ffffffffffffffffffffffffffffffffffffffff1614156113d4576040517f08c379a00000000000000000000000000000000000000000000000000000000081526004016113cb906131cc565b60405180910390fd5b6113df838383611d5c565b6113ea600082611157565b6001600360008573ffffffffffffffffffffffffffffffffffffffff1673ffffffffffffffffffffffffffffffffffffffff168152602001908152602001600020600082825461143a919061359d565b925050819055506001600360008473ffffffffffffffffffffffffffffffffffffffff1673ffffffffffffffffffffffffffffffffffffffff168152602001908152602001600020600082825461149191906134bc565b92505081905550816002600083815260200190815260200160002060006101000a81548173ffffffffffffffffffffffffffffffffffffffff021916908373ffffffffffffffffffffffffffffffffffffffff160217905550808273ffffffffffffffffffffffffffffffffffffffff168473ffffffffffffffffffffffffffffffffffffffff167fddf252ad1be2c89b69c2b068fc378daa952ba7f163c4a11628f55a4df523b3ef60405160405180910390a4505050565b8173ffffffffffffffffffffffffffffffffffffffff168373ffffffffffffffffffffffffffffffffffffffff1614156115b9576040517f08c379a00000000000000000000000000000000000000000000000000000000081526004016115b0906131ec565b60405180910390fd5b80600560008573ffffffffffffffffffffffffffffffffffffffff1673ffffffffffffffffffffffffffffffffffffffff16815260200190815260200160002060008473ffffffffffffffffffffffffffffffffffffffff1673ffffffffffffffffffffffffffffffffffffffff16815260200190815260200160002060006101000a81548160ff0219169083151502179055508173ffffffffffffffffffffffffffffffffffffffff168373ffffffffffffffffffffffffffffffffffffffff167f17307eab39ab6107e8899845ad3d59bd9653f200f220920489ca2b5937696c31836040516116aa91906130b0565b60405180910390a3505050565b606060008214156116ff576040518060400160405280600181526020017f3000000000000000000000000000000000000000000000000000000000000000815250905061185f565b600082905060005b6000821461173157808061171a906136b9565b915050600a8261172a9190613512565b9150611707565b60008167ffffffffffffffff811115611773577f4e487b7100000000000000000000000000000000000000000000000000000000600052604160045260246000fd5b6040519080825280601f01601f1916602001820160405280156117a55781602001600182028036833780820191505090505b5090505b60008514611858576001826117be919061359d565b9150600a856117cd9190613702565b60306117d991906134bc565b60f81b818381518110611815577f4e487b7100000000000000000000000000000000000000000000000000000000600052603260045260246000fd5b60200101907effffffffffffffffffffffffffffffffffffffffffffffffffffffffffffff1916908160001a905350600a856118519190613512565b94506117a9565b8093505050505b919050565b600081600001549050919050565b61190e8484848460405160240161188c94939291906130ed565b6040516020818303038152906040527fde68f20a000000000000000000000000000000000000000000000000000000007bffffffffffffffffffffffffffffffffffffffffffffffffffffffff19166020820180517bffffffffffffffffffffffffffffffffffffffffffffffffffffffff8381831617835250505050611d33565b50505050565b6060600082519050600081141561193d5760405180602001604052806000815250915050611acd565b6000600360028361194e91906134bc565b6119589190613512565b60046119649190613543565b9050600060208261197591906134bc565b67ffffffffffffffff8111156119b4577f4e487b7100000000000000000000000000000000000000000000000000000000600052604160045260246000fd5b6040519080825280601f01601f1916602001820160405280156119e65781602001600182028036833780820191505090505b50905060006040518060600160405280604081526020016138a7604091399050600181016020830160005b86811015611a8a5760038101905062ffffff818a015116603f8160121c168401518060081b905060ff603f83600c1c1686015116810190508060081b905060ff603f8360061c1686015116810190508060081b905060ff603f831686015116810190508060e01b90508084526004840193505050611a11565b506003860660018114611aa45760028114611ab457611abf565b613d3d60f01b6002830352611abf565b603d60f81b60018303525b508484525050819450505050505b919050565b611aec828260405180602001604052806000815250611d61565b5050565b611af9826110e3565b611b38576040517f08c379a0000000000000000000000000000000000000000000000000000000008152600401611b2f9061328c565b60405180910390fd5b80600660008481526020019081526020016000209080519060200190611b5f929190612134565b505050565b611bfe838383604051602401611b7c9392919061314e565b6040516020818303038152906040527fe3849f79000000000000000000000000000000000000000000000000000000007bffffffffffffffffffffffffffffffffffffffffffffffffffffffff19166020820180517bffffffffffffffffffffffffffffffffffffffffffffffffffffffff8381831617835250505050611d33565b505050565b6001816000016000828254019250508190555050565b611c248484846112ee565b611c3084848484611dbc565b611c6f576040517f08c379a0000000000000000000000000000000000000000000000000000000008152600401611c669061318c565b60405180910390fd5b50505050565b606060405180602001604052806000815250905090565b6060611c97826110e3565b611cd6576040517f08c379a0000000000000000000000000000000000000000000000000000000008152600401611ccd9061332c565b60405180910390fd5b6000611ce0611c75565b90506000815111611d005760405180602001604052806000815250611d2b565b80611d0a846116b7565b604051602001611d1b929190612f3c565b6040516020818303038152906040525b915050919050565b60008151905060006a636f6e736f6c652e6c6f679050602083016000808483855afa5050505050565b505050565b611d6b8383611f53565b611d786000848484611dbc565b611db7576040517f08c379a0000000000000000000000000000000000000000000000000000000008152600401611dae9061318c565b60405180910390fd5b505050565b6000611ddd8473ffffffffffffffffffffffffffffffffffffffff16612121565b15611f46578373ffffffffffffffffffffffffffffffffffffffff1663150b7a02611e0661114f565b8786866040518563ffffffff1660e01b8152600401611e289493929190613064565b602060405180830381600087803b158015611e4257600080fd5b505af1925050508015611e7357506040513d601f19601f82011682018060405250810190611e709190612567565b60015b611ef6573d8060008114611ea3576040519150601f19603f3d011682016040523d82523d6000602084013e611ea8565b606091505b50600081511415611eee576040517f08c379a0000000000000000000000000000000000000000000000000000000008152600401611ee59061318c565b60405180910390fd5b805181602001fd5b63150b7a0260e01b7bffffffffffffffffffffffffffffffffffffffffffffffffffffffff1916817bffffffffffffffffffffffffffffffffffffffffffffffffffffffff191614915050611f4b565b600190505b949350505050565b600073ffffffffffffffffffffffffffffffffffffffff168273ffffffffffffffffffffffffffffffffffffffff161415611fc3576040517f08c379a0000000000000000000000000000000000000000000000000000000008152600401611fba906132ac565b60405180910390fd5b611fcc816110e3565b1561200c576040517f08c379a0000000000000000000000000000000000000000000000000000000008152600401612003906131ac565b60405180910390fd5b61201860008383611d5c565b6001600360008473ffffffffffffffffffffffffffffffffffffffff1673ffffffffffffffffffffffffffffffffffffffff168152602001908152602001600020600082825461206891906134bc565b92505081905550816002600083815260200190815260200160002060006101000a81548173ffffffffffffffffffffffffffffffffffffffff021916908373ffffffffffffffffffffffffffffffffffffffff160217905550808273ffffffffffffffffffffffffffffffffffffffff16600073ffffffffffffffffffffffffffffffffffffffff167fddf252ad1be2c89b69c2b068fc378daa952ba7f163c4a11628f55a4df523b3ef60405160405180910390a45050565b600080823b905060008111915050919050565b82805461214090613687565b90600052602060002090601f01602090048101928261216257600085556121a9565b82601f1061217b57805160ff19168380011785556121a9565b828001600101855582156121a9579182015b828111156121a857825182559160200191906001019061218d565b5b5090506121b691906121ba565b5090565b5b808211156121d35760008160009055506001016121bb565b5090565b60006121ea6121e5846133d8565b6133a7565b9050808382526020820190508260005b8581101561222a57813585016122108882612358565b8452602084019350602083019250506001810190506121fa565b5050509392505050565b600061224761224284613404565b6133a7565b90508281526020810184848401111561225f57600080fd5b61226a848285613645565b509392505050565b600061228561228084613434565b6133a7565b90508281526020810184848401111561229d57600080fd5b6122a8848285613645565b509392505050565b6000813590506122bf81613800565b92915050565b600082601f8301126122d657600080fd5b81356122e68482602086016121d7565b91505092915050565b6000813590506122fe81613817565b92915050565b6000813590506123138161382e565b92915050565b6000815190506123288161382e565b92915050565b600082601f83011261233f57600080fd5b813561234f848260208601612234565b91505092915050565b600082601f83011261236957600080fd5b8135612379848260208601612272565b91505092915050565b60008135905061239181613845565b92915050565b6000602082840312156123a957600080fd5b60006123b7848285016122b0565b91505092915050565b600080604083850312156123d357600080fd5b60006123e1858286016122b0565b92505060206123f2858286016122b0565b9150509250929050565b60008060006060848603121561241157600080fd5b600061241f868287016122b0565b9350506020612430868287016122b0565b925050604061244186828701612382565b9150509250925092565b6000806000806080858703121561246157600080fd5b600061246f878288016122b0565b9450506020612480878288016122b0565b935050604061249187828801612382565b925050606085013567ffffffffffffffff8111156124ae57600080fd5b6124ba8782880161232e565b91505092959194509250565b600080604083850312156124d957600080fd5b60006124e7858286016122b0565b92505060206124f8858286016122ef565b9150509250929050565b6000806040838503121561251557600080fd5b6000612523858286016122b0565b925050602061253485828601612382565b9150509250929050565b60006020828403121561255057600080fd5b600061255e84828501612304565b91505092915050565b60006020828403121561257957600080fd5b600061258784828501612319565b91505092915050565b6000602082840312156125a257600080fd5b60006125b084828501612382565b91505092915050565b600080604083850312156125cc57600080fd5b60006125da85828601612382565b925050602083013567ffffffffffffffff8111156125f757600080fd5b612603858286016122c5565b9150509250929050565b612616816135d1565b82525050565b612625816135e3565b82525050565b600061263682613479565b612640818561348f565b9350612650818560208601613654565b612659816137ef565b840191505092915050565b600061266f82613484565b61267981856134a0565b9350612689818560208601613654565b612692816137ef565b840191505092915050565b60006126a882613484565b6126b281856134b1565b93506126c2818560208601613654565b80840191505092915050565b600081546126db81613687565b6126e581866134b1565b94506001821660008114612700576001811461271157612744565b60ff19831686528186019350612744565b61271a85613464565b60005b8381101561273c5781548189015260018201915060208101905061271d565b838801955050505b50505092915050565b600061275a6032836134a0565b91507f4552433732313a207472616e7366657220746f206e6f6e20455243373231526560008301527f63656976657220696d706c656d656e74657200000000000000000000000000006020830152604082019050919050565b60006127c0601c836134a0565b91507f4552433732313a20746f6b656e20616c7265616479206d696e746564000000006000830152602082019050919050565b60006128006024836134a0565b91507f4552433732313a207472616e7366657220746f20746865207a65726f2061646460008301527f72657373000000000000000000000000000000000000000000000000000000006020830152604082019050919050565b60006128666019836134a0565b91507f4552433732313a20617070726f766520746f2063616c6c6572000000000000006000830152602082019050919050565b60006128a66063836134b1565b91507f222c20226465736372697074696f6e223a20224120686967686c79206163636c60008301527f61696d656420636f6c6c656374696f6e206f6620737175617265732e222c202260208301527f696d616765223a2022646174613a696d6167652f7376672b786d6c3b6261736560408301527f36342c00000000000000000000000000000000000000000000000000000000006060830152606382019050919050565b60006129586004836134b1565b91507f574f5244000000000000000000000000000000000000000000000000000000006000830152600482019050919050565b6000612998602c836134a0565b91507f4552433732313a206f70657261746f7220717565727920666f72206e6f6e657860008301527f697374656e7420746f6b656e00000000000000000000000000000000000000006020830152604082019050919050565b60006129fe600d836134b1565b91507f3c2f746578743e3c2f7376673e000000000000000000000000000000000000006000830152600d82019050919050565b6000612a3e6038836134a0565b91507f4552433732313a20617070726f76652063616c6c6572206973206e6f74206f7760008301527f6e6572206e6f7220617070726f76656420666f7220616c6c00000000000000006020830152604082019050919050565b6000612aa4602a836134a0565b91507f4552433732313a2062616c616e636520717565727920666f7220746865207a6560008301527f726f2061646472657373000000000000000000000000000000000000000000006020830152604082019050919050565b6000612b0a6029836134a0565b91507f4552433732313a206f776e657220717565727920666f72206e6f6e657869737460008301527f656e7420746f6b656e00000000000000000000000000000000000000000000006020830152604082019050919050565b6000612b70602e836134a0565b91507f45524337323155524953746f726167653a2055524920736574206f66206e6f6e60008301527f6578697374656e7420746f6b656e0000000000000000000000000000000000006020830152604082019050919050565b6000612bd66002836134b1565b91507f227d0000000000000000000000000000000000000000000000000000000000006000830152600282019050919050565b6000612c166020836134a0565b91507f4552433732313a206d696e7420746f20746865207a65726f20616464726573736000830152602082019050919050565b6000612c566031836134a0565b91507f45524337323155524953746f726167653a2055524920717565727920666f722060008301527f6e6f6e6578697374656e7420746f6b656e0000000000000000000000000000006020830152604082019050919050565b6000612cbc602c836134a0565b91507f4552433732313a20617070726f76656420717565727920666f72206e6f6e657860008301527f697374656e7420746f6b656e00000000000000000000000000000000000000006020830152604082019050919050565b6000612d226029836134a0565b91507f4552433732313a207472616e73666572206f6620746f6b656e2074686174206960008301527f73206e6f74206f776e00000000000000000000000000000000000000000000006020830152604082019050919050565b6000612d88602f836134a0565b91507f4552433732314d657461646174613a2055524920717565727920666f72206e6f60008301527f6e6578697374656e7420746f6b656e00000000000000000000000000000000006020830152604082019050919050565b6000612dee600a836134b1565b91507f7b226e616d65223a2022000000000000000000000000000000000000000000006000830152600a82019050919050565b6000612e2e6021836134a0565b91507f4552433732313a20617070726f76616c20746f2063757272656e74206f776e6560008301527f72000000000000000000000000000000000000000000000000000000000000006020830152604082019050919050565b6000612e94601d836134b1565b91507f646174613a6170706c69636174696f6e2f6a736f6e3b6261736536342c0000006000830152601d82019050919050565b6000612ed46031836134a0565b91507f4552433732313a207472616e736665722063616c6c6572206973206e6f74206f60008301527f776e6572206e6f7220617070726f7665640000000000000000000000000000006020830152604082019050919050565b612f368161363b565b82525050565b6000612f48828561269d565b9150612f54828461269d565b91508190509392505050565b6000612f6c828661269d565b9150612f78828561269d565b9150612f84828461269d565b9150819050949350505050565b6000612f9d82856126ce565b9150612fa9828461269d565b9150612fb4826129f1565b91508190509392505050565b6000612fcb8261294b565b9150612fd7828461269d565b915081905092915050565b6000612fed82612de1565b9150612ff9828561269d565b915061300482612899565b9150613010828461269d565b915061301b82612bc9565b91508190509392505050565b600061303282612e87565b915061303e828461269d565b915081905092915050565b600060208201905061305e600083018461260d565b92915050565b6000608082019050613079600083018761260d565b613086602083018661260d565b6130936040830185612f2d565b81810360608301526130a5818461262b565b905095945050505050565b60006020820190506130c5600083018461261c565b92915050565b600060208201905081810360008301526130e58184612664565b905092915050565b600060808201905081810360008301526131078187612664565b9050818103602083015261311b8186612664565b9050818103604083015261312f8185612664565b905081810360608301526131438184612664565b905095945050505050565b600060608201905081810360008301526131688186612664565b90506131776020830185612f2d565b613184604083018461260d565b949350505050565b600060208201905081810360008301526131a58161274d565b9050919050565b600060208201905081810360008301526131c5816127b3565b9050919050565b600060208201905081810360008301526131e5816127f3565b9050919050565b6000602082019050818103600083015261320581612859565b9050919050565b600060208201905081810360008301526132258161298b565b9050919050565b6000602082019050818103600083015261324581612a31565b9050919050565b6000602082019050818103600083015261326581612a97565b9050919050565b6000602082019050818103600083015261328581612afd565b9050919050565b600060208201905081810360008301526132a581612b63565b9050919050565b600060208201905081810360008301526132c581612c09565b9050919050565b600060208201905081810360008301526132e581612c49565b9050919050565b6000602082019050818103600083015261330581612caf565b9050919050565b6000602082019050818103600083015261332581612d15565b9050919050565b6000602082019050818103600083015261334581612d7b565b9050919050565b6000602082019050818103600083015261336581612e21565b9050919050565b6000602082019050818103600083015261338581612ec7565b9050919050565b60006020820190506133a16000830184612f2d565b92915050565b6000604051905081810181811067ffffffffffffffff821117156133ce576133cd6137c0565b5b8060405250919050565b600067ffffffffffffffff8211156133f3576133f26137c0565b5b602082029050602081019050919050565b600067ffffffffffffffff82111561341f5761341e6137c0565b5b601f19601f8301169050602081019050919050565b600067ffffffffffffffff82111561344f5761344e6137c0565b5b601f19601f8301169050602081019050919050565b60008190508160005260206000209050919050565b600081519050919050565b600081519050919050565b600082825260208201905092915050565b600082825260208201905092915050565b600081905092915050565b60006134c78261363b565b91506134d28361363b565b9250827fffffffffffffffffffffffffffffffffffffffffffffffffffffffffffffffff0382111561350757613506613733565b5b828201905092915050565b600061351d8261363b565b91506135288361363b565b92508261353857613537613762565b5b828204905092915050565b600061354e8261363b565b91506135598361363b565b9250817fffffffffffffffffffffffffffffffffffffffffffffffffffffffffffffffff048311821515161561359257613591613733565b5b828202905092915050565b60006135a88261363b565b91506135b38361363b565b9250828210156135c6576135c5613733565b5b828203905092915050565b60006135dc8261361b565b9050919050565b60008115159050919050565b60007fffffffff0000000000000000000000000000000000000000000000000000000082169050919050565b600073ffffffffffffffffffffffffffffffffffffffff82169050919050565b6000819050919050565b82818337600083830152505050565b60005b83811015613672578082015181840152602081019050613657565b83811115613681576000848401525b50505050565b6000600282049050600182168061369f57607f821691505b602082108114156136b3576136b2613791565b5b50919050565b60006136c48261363b565b91507fffffffffffffffffffffffffffffffffffffffffffffffffffffffffffffffff8214156136f7576136f6613733565b5b600182019050919050565b600061370d8261363b565b91506137188361363b565b92508261372857613727613762565b5b828206905092915050565b7f4e487b7100000000000000000000000000000000000000000000000000000000600052601160045260246000fd5b7f4e487b7100000000000000000000000000000000000000000000000000000000600052601260045260246000fd5b7f4e487b7100000000000000000000000000000000000000000000000000000000600052602260045260246000fd5b7f4e487b7100000000000000000000000000000000000000000000000000000000600052604160045260246000fd5b6000601f19601f8301169050919050565b613809816135d1565b811461381457600080fd5b50565b613820816135e3565b811461382b57600080fd5b50565b613837816135ef565b811461384257600080fd5b50565b61384e8161363b565b811461385957600080fd5b5056fe416e204e465420772f20494420257320686173206265656e206d696e74656420746f2025735573696e672074686520666f6c6c6f77696e6720776f7264733a2025732c2025732c2025734142434445464748494a4b4c4d4e4f505152535455565758595a6162636465666768696a6b6c6d6e6f707172737475767778797a303132333435363738392b2fa2646970667358221220e829376036ba1a28bfd547878705fa63c96c469e8299caa047b09693b3cd90d464736f6c634300080000333c73766720786d6c6e733d27687474703a2f2f7777772e77332e6f72672f323030302f73766727207072657365727665417370656374526174696f3d27784d696e594d696e206d656574272076696577426f783d273020302033353020333530273e3c7374796c653e2e62617365207b2066696c6c3a2077686974653b20666f6e742d66616d696c793a2073657269663b20666f6e742d73697a653a20323470783b207d3c2f7374796c653e3c726563742077696474683d273130302527206865696768743d2731303025272066696c6c3d27626c61636b27202f3e3c7465787420783d273530252720793d273530252720636c6173733d27626173652720646f6d696e616e742d626173656c696e653d276d6964646c652720746578742d616e63686f723d276d6964646c65273e",
    "linkReferences": {},
    "deployedLinkReferences": {}
}