{
  "_format": "hh-sol-artifact-1",
  "contractName": "NFTContract",
  "sourceName": "contracts/NFTContract.sol",
  "abi": [
    {
      "inputs": [],
      "stateMutability": "nonpayable",
      "type": "constructor"
    },
    {
      "anonymous": false,
      "inputs": [
        {
          "indexed": true,
          "internalType": "address",
          "name": "owner",
          "type": "address"
        },
        {
          "indexed": true,
          "internalType": "address",
          "name": "approved",
          "type": "address"
        },
        {
          "indexed": true,
          "internalType": "uint256",
          "name": "tokenId",
          "type": "uint256"
        }
      ],
      "name": "Approval",
      "type": "event"
    },
    {
      "anonymous": false,
      "inputs": [
        {
          "indexed": true,
          "internalType": "address",
          "name": "owner",
          "type": "address"
        },
        {
          "indexed": true,
          "internalType": "address",
          "name": "operator",
          "type": "address"
        },
        {
          "indexed": false,
          "internalType": "bool",
          "name": "approved",
          "type": "bool"
        }
      ],
      "name": "ApprovalForAll",
      "type": "event"
    },
    {
      "anonymous": false,
      "inputs": [
        {
          "indexed": false,
          "internalType": "address",
          "name": "sender",
          "type": "address"
        },
        {
          "indexed": false,
          "internalType": "uint256",
          "name": "tokenId",
          "type": "uint256"
        }
      ],
      "name": "NewNFTMinted",
      "type": "event"
    },
    {
      "anonymous": false,
      "inputs": [
        {
          "indexed": true,
          "internalType": "address",
          "name": "from",
          "type": "address"
        },
        {
          "indexed": true,
          "internalType": "address",
          "name": "to",
          "type": "address"
        },
        {
          "indexed": true,
          "internalType": "uint256",
          "name": "tokenId",
          "type": "uint256"
        }
      ],
      "name": "Transfer",
      "type": "event"
    },
    {
      "inputs": [
        {
          "internalType": "address",
          "name": "to",
          "type": "address"
        },
        {
          "internalType": "uint256",
          "name": "tokenId",
          "type": "uint256"
        }
      ],
      "name": "approve",
      "outputs": [],
      "stateMutability": "nonpayable",
      "type": "function"
    },
    {
      "inputs": [
        {
          "internalType": "address",
          "name": "owner",
          "type": "address"
        }
      ],
      "name": "balanceOf",
      "outputs": [
        {
          "internalType": "uint256",
          "name": "",
          "type": "uint256"
        }
      ],
      "stateMutability": "view",
      "type": "function"
    },
    {
      "inputs": [
        {
          "internalType": "uint256",
          "name": "tokenId",
          "type": "uint256"
        }
      ],
      "name": "getApproved",
      "outputs": [
        {
          "internalType": "address",
          "name": "",
          "type": "address"
        }
      ],
      "stateMutability": "view",
      "type": "function"
    },
    {
      "inputs": [
        {
          "internalType": "address",
          "name": "owner",
          "type": "address"
        },
        {
          "internalType": "address",
          "name": "operator",
          "type": "address"
        }
      ],
      "name": "isApprovedForAll",
      "outputs": [
        {
          "internalType": "bool",
          "name": "",
          "type": "bool"
        }
      ],
      "stateMutability": "view",
      "type": "function"
    },
    {
      "inputs": [],
      "name": "makeNFT",
      "outputs": [],
      "stateMutability": "nonpayable",
      "type": "function"
    },
    {
      "inputs": [],
      "name": "name",
      "outputs": [
        {
          "internalType": "string",
          "name": "",
          "type": "string"
        }
      ],
      "stateMutability": "view",
      "type": "function"
    },
    {
      "inputs": [
        {
          "internalType": "uint256",
          "name": "tokenId",
          "type": "uint256"
        }
      ],
      "name": "ownerOf",
      "outputs": [
        {
          "internalType": "address",
          "name": "",
          "type": "address"
        }
      ],
      "stateMutability": "view",
      "type": "function"
    },
    {
      "inputs": [
        {
          "internalType": "uint256",
          "name": "tokenId",
          "type": "uint256"
        },
        {
          "internalType": "string[]",
          "name": "wordArray",
          "type": "string[]"
        }
      ],
      "name": "pickRandomWordFromList",
      "outputs": [
        {
          "internalType": "string",
          "name": "",
          "type": "string"
        }
      ],
      "stateMutability": "pure",
      "type": "function"
    },
    {
      "inputs": [
        {
          "internalType": "address",
          "name": "from",
          "type": "address"
        },
        {
          "internalType": "address",
          "name": "to",
          "type": "address"
        },
        {
          "internalType": "uint256",
          "name": "tokenId",
          "type": "uint256"
        }
      ],
      "name": "safeTransferFrom",
      "outputs": [],
      "stateMutability": "nonpayable",
      "type": "function"
    },
    {
      "inputs": [
        {
          "internalType": "address",
          "name": "from",
          "type": "address"
        },
        {
          "internalType": "address",
          "name": "to",
          "type": "address"
        },
        {
          "internalType": "uint256",
          "name": "tokenId",
          "type": "uint256"
        },
        {
          "internalType": "bytes",
          "name": "_data",
          "type": "bytes"
        }
      ],
      "name": "safeTransferFrom",
      "outputs": [],
      "stateMutability": "nonpayable",
      "type": "function"
    },
    {
      "inputs": [
        {
          "internalType": "address",
          "name": "operator",
          "type": "address"
        },
        {
          "internalType": "bool",
          "name": "approved",
          "type": "bool"
        }
      ],
      "name": "setApprovalForAll",
      "outputs": [],
      "stateMutability": "nonpayable",
      "type": "function"
    },
    {
      "inputs": [
        {
          "internalType": "bytes4",
          "name": "interfaceId",
          "type": "bytes4"
        }
      ],
      "name": "supportsInterface",
      "outputs": [
        {
          "internalType": "bool",
          "name": "",
          "type": "bool"
        }
      ],
      "stateMutability": "view",
      "type": "function"
    },
    {
      "inputs": [],
      "name": "symbol",
      "outputs": [
        {
          "internalType": "string",
          "name": "",
          "type": "string"
        }
      ],
      "stateMutability": "view",
      "type": "function"
    },
    {
      "inputs": [
        {
          "internalType": "uint256",
          "name": "tokenId",
          "type": "uint256"
        }
      ],
      "name": "tokenURI",
      "outputs": [
        {
          "internalType": "string",
          "name": "",
          "type": "string"
        }
      ],
      "stateMutability": "view",
      "type": "function"
    },
    {
      "inputs": [
        {
          "internalType": "address",
          "name": "from",
          "type": "address"
        },
        {
          "internalType": "address",
          "name": "to",
          "type": "address"
        },
        {
          "internalType": "uint256",
          "name": "tokenId",
          "type": "uint256"
        }
      ],
      "name": "transferFrom",
      "outputs": [],
      "stateMutability": "nonpayable",
      "type": "function"
    }
  ],
  "bytecode": "0x608060405260405180610160016040528061012f81526020016200461861012f913960089080519060200190620000389291906200090a565b506040518061014001604052806040518060400160405280600f81526020017f71756164726967656e6172696f7573000000000000000000000000000000000081525081526020016040518060400160405280600781526020017f616c65636f73740000000000000000000000000000000000000000000000000081525081526020016040518060400160405280600481526020017f6d6f79610000000000000000000000000000000000000000000000000000000081525081526020016040518060400160405280600a81526020017f766572736963756c61720000000000000000000000000000000000000000000081525081526020016040518060400160405280600a81526020017f6172746963756c6174650000000000000000000000000000000000000000000081525081526020016040518060400160405280600b81526020017f6361726e69766f726f757300000000000000000000000000000000000000000081525081526020016040518060400160405280600981526020017f6465636964756f7573000000000000000000000000000000000000000000000081525081526020016040518060400160405280600881526020017f746572746961727900000000000000000000000000000000000000000000000081525081526020016040518060400160405280600b81526020017f656c656d656d6e7461727900000000000000000000000000000000000000000081525081526020016040518060400160405280600781526020017f7175616e74756d00000000000000000000000000000000000000000000000000815250815250600990600a620002a39291906200099b565b506040518061016001604052806040518060400160405280600881526020017f736f72636572657200000000000000000000000000000000000000000000000081525081526020016040518060400160405280600781526020017f7363686f6c61720000000000000000000000000000000000000000000000000081525081526020016040518060400160405280600881526020017f61636164656d696300000000000000000000000000000000000000000000000081525081526020016040518060400160405280600481526020017f6d6f6e6b0000000000000000000000000000000000000000000000000000000081525081526020016040518060400160405280600981526020017f617263686974656374000000000000000000000000000000000000000000000081525081526020016040518060400160405280600581526020017f647761726600000000000000000000000000000000000000000000000000000081525081526020016040518060400160405280600881526020017f6d61726b736d656e00000000000000000000000000000000000000000000000081525081526020016040518060400160405280600981526020017f61737361696c616e74000000000000000000000000000000000000000000000081525081526020016040518060400160405280600781526020017f6d6172717569730000000000000000000000000000000000000000000000000081525081526020016040518060400160405280600a81526020017f73776f7264736d6974680000000000000000000000000000000000000000000081525081526020016040518060400160405280600881526020017f766973636f756e74000000000000000000000000000000000000000000000000815250815250600a90600b6200054992919062000a02565b506040518061010001604052806040518060400160405280600781526020017f73757072656d650000000000000000000000000000000000000000000000000081525081526020016040518060400160405280600881526020017f6f7665726c6f726400000000000000000000000000000000000000000000000081525081526020016040518060400160405280600481526020017f6d6167650000000000000000000000000000000000000000000000000000000081525081526020016040518060400160405280600881526020017f646566656e64657200000000000000000000000000000000000000000000000081525081526020016040518060400160405280600981526020017f6d657263656e617279000000000000000000000000000000000000000000000081525081526020016040518060400160405280600881526020017f6d61726b736d656e00000000000000000000000000000000000000000000000081525081526020016040518060400160405280600a81526020017f627261766568656172740000000000000000000000000000000000000000000081525081526020016040518060400160405280600981526020017f70726f746563746f720000000000000000000000000000000000000000000000815250815250600b9060086200073e92919062000a69565b503480156200074c57600080fd5b506040518060400160405280600981526020017f5371756172654e465400000000000000000000000000000000000000000000008152506040518060400160405280600681526020017f53515541524500000000000000000000000000000000000000000000000000008152508160009080519060200190620007d19291906200090a565b508060019080519060200190620007ea9291906200090a565b505050620008386040518060400160405280601881526020017f5468697320697320616e204e465420636f6e74726163742e00000000000000008152506200083e60201b620010191760201c565b62000c8a565b620008de8160405160240162000855919062000b9e565b6040516020818303038152906040527f41304fac000000000000000000000000000000000000000000000000000000007bffffffffffffffffffffffffffffffffffffffffffffffffffffffff19166020820180517bffffffffffffffffffffffffffffffffffffffffffffffffffffffff8381831617835250505050620008e160201b60201c565b50565b60008151905060006a636f6e736f6c652e6c6f679050602083016000808483855afa5050505050565b828054620009189062000c14565b90600052602060002090601f0160209004810192826200093c576000855562000988565b82601f106200095757805160ff191683800117855562000988565b8280016001018555821562000988579182015b82811115620009875782518255916020019190600101906200096a565b5b50905062000997919062000ad0565b5090565b828054828255906000526020600020908101928215620009ef579160200282015b82811115620009ee578251829080519060200190620009dd9291906200090a565b5091602001919060010190620009bc565b5b509050620009fe919062000aef565b5090565b82805482825590600052602060002090810192821562000a56579160200282015b8281111562000a5557825182908051906020019062000a449291906200090a565b509160200191906001019062000a23565b5b50905062000a65919062000aef565b5090565b82805482825590600052602060002090810192821562000abd579160200282015b8281111562000abc57825182908051906020019062000aab9291906200090a565b509160200191906001019062000a8a565b5b50905062000acc919062000aef565b5090565b5b8082111562000aeb57600081600090555060010162000ad1565b5090565b5b8082111562000b13576000818162000b09919062000b17565b5060010162000af0565b5090565b50805462000b259062000c14565b6000825580601f1062000b39575062000b5a565b601f01602090049060005260206000209081019062000b59919062000ad0565b5b50565b600062000b6a8262000bc2565b62000b76818562000bcd565b935062000b8881856020860162000bde565b62000b938162000c79565b840191505092915050565b6000602082019050818103600083015262000bba818462000b5d565b905092915050565b600081519050919050565b600082825260208201905092915050565b60005b8381101562000bfe57808201518184015260208101905062000be1565b8381111562000c0e576000848401525b50505050565b6000600282049050600182168062000c2d57607f821691505b6020821081141562000c445762000c4362000c4a565b5b50919050565b7f4e487b7100000000000000000000000000000000000000000000000000000000600052602260045260246000fd5b6000601f19601f8301169050919050565b61397e8062000c9a6000396000f3fe608060405234801561001057600080fd5b50600436106100f55760003560e01c806370a0823111610097578063b036b4bd11610066578063b036b4bd14610296578063b88d4fde146102a0578063c87b56dd146102bc578063e985e9c5146102ec576100f5565b806370a08231146101fc57806395d89b411461022c578063a22cb4651461024a578063a9de53c414610266576100f5565b8063095ea7b3116100d3578063095ea7b31461017857806323b872dd1461019457806342842e0e146101b05780636352211e146101cc576100f5565b806301ffc9a7146100fa57806306fdde031461012a578063081812fc14610148575b600080fd5b610114600480360381019061010f9190612577565b61031c565b6040516101219190613112565b60405180910390f35b6101326103fe565b60405161013f919061312d565b60405180910390f35b610162600480360381019061015d91906125c9565b610490565b60405161016f9190613082565b60405180910390f35b610192600480360381019061018d919061253b565b610515565b005b6101ae60048036038101906101a99190612435565b61062d565b005b6101ca60048036038101906101c59190612435565b61068d565b005b6101e660048036038101906101e191906125c9565b6106ad565b6040516101f39190613082565b60405180910390f35b610216600480360381019061021191906123d0565b61075f565b60405161022391906133ee565b60405180910390f35b610234610817565b604051610241919061312d565b60405180910390f35b610264600480360381019061025f91906124ff565b6108a9565b005b610280600480360381019061027b91906125f2565b6108bf565b60405161028d919061312d565b60405180910390f35b61029e610950565b005b6102ba60048036038101906102b59190612484565b610dd1565b005b6102d660048036038101906102d191906125c9565b610e33565b6040516102e3919061312d565b60405180910390f35b610306600480360381019061030191906123f9565b610f85565b6040516103139190613112565b60405180910390f35b60007f80ac58cd000000000000000000000000000000000000000000000000000000007bffffffffffffffffffffffffffffffffffffffffffffffffffffffff1916827bffffffffffffffffffffffffffffffffffffffffffffffffffffffff191614806103e757507f5b5e139f000000000000000000000000000000000000000000000000000000007bffffffffffffffffffffffffffffffffffffffffffffffffffffffff1916827bffffffffffffffffffffffffffffffffffffffffffffffffffffffff1916145b806103f757506103f6826110b2565b5b9050919050565b60606000805461040d906136e9565b80601f0160208091040260200160405190810160405280929190818152602001828054610439906136e9565b80156104865780601f1061045b57610100808354040283529160200191610486565b820191906000526020600020905b81548152906001019060200180831161046957829003601f168201915b5050505050905090565b600061049b8261111c565b6104da576040517f08c379a00000000000000000000000000000000000000000000000000000000081526004016104d19061334e565b60405180910390fd5b6004600083815260200190815260200160002060009054906101000a900473ffffffffffffffffffffffffffffffffffffffff169050919050565b6000610520826106ad565b90508073ffffffffffffffffffffffffffffffffffffffff168373ffffffffffffffffffffffffffffffffffffffff161415610591576040517f08c379a0000000000000000000000000000000000000000000000000000000008152600401610588906133ae565b60405180910390fd5b8073ffffffffffffffffffffffffffffffffffffffff166105b0611188565b73ffffffffffffffffffffffffffffffffffffffff1614806105df57506105de816105d9611188565b610f85565b5b61061e576040517f08c379a00000000000000000000000000000000000000000000000000000000081526004016106159061328e565b60405180910390fd5b6106288383611190565b505050565b61063e610638611188565b82611249565b61067d576040517f08c379a0000000000000000000000000000000000000000000000000000000008152600401610674906133ce565b60405180910390fd5b610688838383611327565b505050565b6106a883838360405180602001604052806000815250610dd1565b505050565b6000806002600084815260200190815260200160002060009054906101000a900473ffffffffffffffffffffffffffffffffffffffff169050600073ffffffffffffffffffffffffffffffffffffffff168173ffffffffffffffffffffffffffffffffffffffff161415610756576040517f08c379a000000000000000000000000000000000000000000000000000000000815260040161074d906132ce565b60405180910390fd5b80915050919050565b60008073ffffffffffffffffffffffffffffffffffffffff168273ffffffffffffffffffffffffffffffffffffffff1614156107d0576040517f08c379a00000000000000000000000000000000000000000000000000000000081526004016107c7906132ae565b60405180910390fd5b600360008373ffffffffffffffffffffffffffffffffffffffff1673ffffffffffffffffffffffffffffffffffffffff168152602001908152602001600020549050919050565b606060018054610826906136e9565b80601f0160208091040260200160405190810160405280929190818152602001828054610852906136e9565b801561089f5780601f106108745761010080835404028352916020019161089f565b820191906000526020600020905b81548152906001019060200180831161088257829003601f168201915b5050505050905090565b6108bb6108b4611188565b8383611583565b5050565b606060006108cc846116f0565b6040516020016108dc9190612ff9565b6040516020818303038152906040528051906020012060001c90508251816109049190613764565b905082818151811061093f577f4e487b7100000000000000000000000000000000000000000000000000000000600052603260045260246000fd5b602002602001015191505092915050565b600061095c600761189d565b90506000610a3b826009805480602002602001604051908101604052809291908181526020016000905b82821015610a325783829060005260206000200180546109a5906136e9565b80601f01602080910402602001604051908101604052809291908181526020018280546109d1906136e9565b8015610a1e5780601f106109f357610100808354040283529160200191610a1e565b820191906000526020600020905b815481529060010190602001808311610a0157829003601f168201915b505050505081526020019060010190610986565b505050506108bf565b90506000610b1a83600a805480602002602001604051908101604052809291908181526020016000905b82821015610b11578382906000526020600020018054610a84906136e9565b80601f0160208091040260200160405190810160405280929190818152602001828054610ab0906136e9565b8015610afd5780601f10610ad257610100808354040283529160200191610afd565b820191906000526020600020905b815481529060010190602001808311610ae057829003601f168201915b505050505081526020019060010190610a65565b505050506108bf565b90506000610bf984600b805480602002602001604051908101604052809291908181526020016000905b82821015610bf0578382906000526020600020018054610b63906136e9565b80601f0160208091040260200160405190810160405280929190818152602001828054610b8f906136e9565b8015610bdc5780601f10610bb157610100808354040283529160200191610bdc565b820191906000526020600020905b815481529060010190602001808311610bbf57829003601f168201915b505050505081526020019060010190610b44565b505050506108bf565b9050610c1f6040518060600160405280602581526020016138e4602591398484846118ab565b6000838383604051602001610c3693929190612f99565b60405160208183030381529060405290506000600882604051602001610c5d929190612fca565b6040516020818303038152906040529050610cac6040518060400160405280601581526020017f0a2d2d2d2d2d2d2d2d2d2d2d2d2d2d2d2d2d2d2d2d0000000000000000000000815250611019565b610cb581611019565b610cf36040518060400160405280601581526020017f2d2d2d2d2d2d2d2d2d2d2d2d2d2d2d2d2d2d2d2d0a0000000000000000000000815250611019565b6000610d2783610d028461194d565b604051602001610d1392919061301b565b60405160208183030381529060405261194d565b9050600081604051602001610d3c9190613060565b6040516020818303038152906040529050610d573389611b0b565b610d618882611b29565b610d846040518060600160405280602581526020016138bf602591398933611b9d565b610d8e6007611c3c565b7f1c05098ed1ff38e6238d2b1b04b2c7977d4c94ce651bda6473f9dba8dbf01da03389604051610dbf9291906130e9565b60405180910390a15050505050505050565b610de2610ddc611188565b83611249565b610e21576040517f08c379a0000000000000000000000000000000000000000000000000000000008152600401610e18906133ce565b60405180910390fd5b610e2d84848484611c52565b50505050565b6060610e3e8261111c565b610e7d576040517f08c379a0000000000000000000000000000000000000000000000000000000008152600401610e749061332e565b60405180910390fd5b6000600660008481526020019081526020016000208054610e9d906136e9565b80601f0160208091040260200160405190810160405280929190818152602001828054610ec9906136e9565b8015610f165780601f10610eeb57610100808354040283529160200191610f16565b820191906000526020600020905b815481529060010190602001808311610ef957829003601f168201915b505050505090506000610f27611cae565b9050600081511415610f3d578192505050610f80565b600082511115610f72578082604051602001610f5a929190612f75565b60405160208183030381529060405292505050610f80565b610f7b84611cc5565b925050505b919050565b6000600560008473ffffffffffffffffffffffffffffffffffffffff1673ffffffffffffffffffffffffffffffffffffffff16815260200190815260200160002060008373ffffffffffffffffffffffffffffffffffffffff1673ffffffffffffffffffffffffffffffffffffffff16815260200190815260200160002060009054906101000a900460ff16905092915050565b6110af8160405160240161102d919061312d565b6040516020818303038152906040527f41304fac000000000000000000000000000000000000000000000000000000007bffffffffffffffffffffffffffffffffffffffffffffffffffffffff19166020820180517bffffffffffffffffffffffffffffffffffffffffffffffffffffffff8381831617835250505050611d6c565b50565b60007f01ffc9a7000000000000000000000000000000000000000000000000000000007bffffffffffffffffffffffffffffffffffffffffffffffffffffffff1916827bffffffffffffffffffffffffffffffffffffffffffffffffffffffff1916149050919050565b60008073ffffffffffffffffffffffffffffffffffffffff166002600084815260200190815260200160002060009054906101000a900473ffffffffffffffffffffffffffffffffffffffff1673ffffffffffffffffffffffffffffffffffffffff1614159050919050565b600033905090565b816004600083815260200190815260200160002060006101000a81548173ffffffffffffffffffffffffffffffffffffffff021916908373ffffffffffffffffffffffffffffffffffffffff160217905550808273ffffffffffffffffffffffffffffffffffffffff16611203836106ad565b73ffffffffffffffffffffffffffffffffffffffff167f8c5be1e5ebec7d5bd14f71427d1e84f3dd0314c0f7b2291e5b200ac8c7c3b92560405160405180910390a45050565b60006112548261111c565b611293576040517f08c379a000000000000000000000000000000000000000000000000000000000815260040161128a9061326e565b60405180910390fd5b600061129e836106ad565b90508073ffffffffffffffffffffffffffffffffffffffff168473ffffffffffffffffffffffffffffffffffffffff16148061130d57508373ffffffffffffffffffffffffffffffffffffffff166112f584610490565b73ffffffffffffffffffffffffffffffffffffffff16145b8061131e575061131d8185610f85565b5b91505092915050565b8273ffffffffffffffffffffffffffffffffffffffff16611347826106ad565b73ffffffffffffffffffffffffffffffffffffffff161461139d576040517f08c379a00000000000000000000000000000000000000000000000000000000081526004016113949061336e565b60405180910390fd5b600073ffffffffffffffffffffffffffffffffffffffff168273ffffffffffffffffffffffffffffffffffffffff16141561140d576040517f08c379a00000000000000000000000000000000000000000000000000000000081526004016114049061322e565b60405180910390fd5b611418838383611d95565b611423600082611190565b6001600360008573ffffffffffffffffffffffffffffffffffffffff1673ffffffffffffffffffffffffffffffffffffffff168152602001908152602001600020600082825461147391906135ff565b925050819055506001600360008473ffffffffffffffffffffffffffffffffffffffff1673ffffffffffffffffffffffffffffffffffffffff16815260200190815260200160002060008282546114ca919061351e565b92505081905550816002600083815260200190815260200160002060006101000a81548173ffffffffffffffffffffffffffffffffffffffff021916908373ffffffffffffffffffffffffffffffffffffffff160217905550808273ffffffffffffffffffffffffffffffffffffffff168473ffffffffffffffffffffffffffffffffffffffff167fddf252ad1be2c89b69c2b068fc378daa952ba7f163c4a11628f55a4df523b3ef60405160405180910390a4505050565b8173ffffffffffffffffffffffffffffffffffffffff168373ffffffffffffffffffffffffffffffffffffffff1614156115f2576040517f08c379a00000000000000000000000000000000000000000000000000000000081526004016115e99061324e565b60405180910390fd5b80600560008573ffffffffffffffffffffffffffffffffffffffff1673ffffffffffffffffffffffffffffffffffffffff16815260200190815260200160002060008473ffffffffffffffffffffffffffffffffffffffff1673ffffffffffffffffffffffffffffffffffffffff16815260200190815260200160002060006101000a81548160ff0219169083151502179055508173ffffffffffffffffffffffffffffffffffffffff168373ffffffffffffffffffffffffffffffffffffffff167f17307eab39ab6107e8899845ad3d59bd9653f200f220920489ca2b5937696c31836040516116e39190613112565b60405180910390a3505050565b60606000821415611738576040518060400160405280600181526020017f30000000000000000000000000000000000000000000000000000000000000008152509050611898565b600082905060005b6000821461176a5780806117539061371b565b915050600a826117639190613574565b9150611740565b60008167ffffffffffffffff8111156117ac577f4e487b7100000000000000000000000000000000000000000000000000000000600052604160045260246000fd5b6040519080825280601f01601f1916602001820160405280156117de5781602001600182028036833780820191505090505b5090505b60008514611891576001826117f791906135ff565b9150600a856118069190613764565b6030611812919061351e565b60f81b81838151811061184e577f4e487b7100000000000000000000000000000000000000000000000000000000600052603260045260246000fd5b60200101907effffffffffffffffffffffffffffffffffffffffffffffffffffffffffffff1916908160001a905350600a8561188a9190613574565b94506117e2565b8093505050505b919050565b600081600001549050919050565b611947848484846040516024016118c5949392919061314f565b6040516020818303038152906040527fde68f20a000000000000000000000000000000000000000000000000000000007bffffffffffffffffffffffffffffffffffffffffffffffffffffffff19166020820180517bffffffffffffffffffffffffffffffffffffffffffffffffffffffff8381831617835250505050611d6c565b50505050565b606060008251905060008114156119765760405180602001604052806000815250915050611b06565b60006003600283611987919061351e565b6119919190613574565b600461199d91906135a5565b905060006020826119ae919061351e565b67ffffffffffffffff8111156119ed577f4e487b7100000000000000000000000000000000000000000000000000000000600052604160045260246000fd5b6040519080825280601f01601f191660200182016040528015611a1f5781602001600182028036833780820191505090505b5090506000604051806060016040528060408152602001613909604091399050600181016020830160005b86811015611ac35760038101905062ffffff818a015116603f8160121c168401518060081b905060ff603f83600c1c1686015116810190508060081b905060ff603f8360061c1686015116810190508060081b905060ff603f831686015116810190508060e01b90508084526004840193505050611a4a565b506003860660018114611add5760028114611aed57611af8565b613d3d60f01b6002830352611af8565b603d60f81b60018303525b508484525050819450505050505b919050565b611b25828260405180602001604052806000815250611d9a565b5050565b611b328261111c565b611b71576040517f08c379a0000000000000000000000000000000000000000000000000000000008152600401611b68906132ee565b60405180910390fd5b80600660008481526020019081526020016000209080519060200190611b9892919061216d565b505050565b611c37838383604051602401611bb5939291906131b0565b6040516020818303038152906040527fe3849f79000000000000000000000000000000000000000000000000000000007bffffffffffffffffffffffffffffffffffffffffffffffffffffffff19166020820180517bffffffffffffffffffffffffffffffffffffffffffffffffffffffff8381831617835250505050611d6c565b505050565b6001816000016000828254019250508190555050565b611c5d848484611327565b611c6984848484611df5565b611ca8576040517f08c379a0000000000000000000000000000000000000000000000000000000008152600401611c9f906131ee565b60405180910390fd5b50505050565b606060405180602001604052806000815250905090565b6060611cd08261111c565b611d0f576040517f08c379a0000000000000000000000000000000000000000000000000000000008152600401611d069061338e565b60405180910390fd5b6000611d19611cae565b90506000815111611d395760405180602001604052806000815250611d64565b80611d43846116f0565b604051602001611d54929190612f75565b6040516020818303038152906040525b915050919050565b60008151905060006a636f6e736f6c652e6c6f679050602083016000808483855afa5050505050565b505050565b611da48383611f8c565b611db16000848484611df5565b611df0576040517f08c379a0000000000000000000000000000000000000000000000000000000008152600401611de7906131ee565b60405180910390fd5b505050565b6000611e168473ffffffffffffffffffffffffffffffffffffffff1661215a565b15611f7f578373ffffffffffffffffffffffffffffffffffffffff1663150b7a02611e3f611188565b8786866040518563ffffffff1660e01b8152600401611e61949392919061309d565b602060405180830381600087803b158015611e7b57600080fd5b505af1925050508015611eac57506040513d601f19601f82011682018060405250810190611ea991906125a0565b60015b611f2f573d8060008114611edc576040519150601f19603f3d011682016040523d82523d6000602084013e611ee1565b606091505b50600081511415611f27576040517f08c379a0000000000000000000000000000000000000000000000000000000008152600401611f1e906131ee565b60405180910390fd5b805181602001fd5b63150b7a0260e01b7bffffffffffffffffffffffffffffffffffffffffffffffffffffffff1916817bffffffffffffffffffffffffffffffffffffffffffffffffffffffff191614915050611f84565b600190505b949350505050565b600073ffffffffffffffffffffffffffffffffffffffff168273ffffffffffffffffffffffffffffffffffffffff161415611ffc576040517f08c379a0000000000000000000000000000000000000000000000000000000008152600401611ff39061330e565b60405180910390fd5b6120058161111c565b15612045576040517f08c379a000000000000000000000000000000000000000000000000000000000815260040161203c9061320e565b60405180910390fd5b61205160008383611d95565b6001600360008473ffffffffffffffffffffffffffffffffffffffff1673ffffffffffffffffffffffffffffffffffffffff16815260200190815260200160002060008282546120a1919061351e565b92505081905550816002600083815260200190815260200160002060006101000a81548173ffffffffffffffffffffffffffffffffffffffff021916908373ffffffffffffffffffffffffffffffffffffffff160217905550808273ffffffffffffffffffffffffffffffffffffffff16600073ffffffffffffffffffffffffffffffffffffffff167fddf252ad1be2c89b69c2b068fc378daa952ba7f163c4a11628f55a4df523b3ef60405160405180910390a45050565b600080823b905060008111915050919050565b828054612179906136e9565b90600052602060002090601f01602090048101928261219b57600085556121e2565b82601f106121b457805160ff19168380011785556121e2565b828001600101855582156121e2579182015b828111156121e15782518255916020019190600101906121c6565b5b5090506121ef91906121f3565b5090565b5b8082111561220c5760008160009055506001016121f4565b5090565b600061222361221e8461343a565b613409565b9050808382526020820190508260005b8581101561226357813585016122498882612391565b845260208401935060208301925050600181019050612233565b5050509392505050565b600061228061227b84613466565b613409565b90508281526020810184848401111561229857600080fd5b6122a38482856136a7565b509392505050565b60006122be6122b984613496565b613409565b9050828152602081018484840111156122d657600080fd5b6122e18482856136a7565b509392505050565b6000813590506122f881613862565b92915050565b600082601f83011261230f57600080fd5b813561231f848260208601612210565b91505092915050565b60008135905061233781613879565b92915050565b60008135905061234c81613890565b92915050565b60008151905061236181613890565b92915050565b600082601f83011261237857600080fd5b813561238884826020860161226d565b91505092915050565b600082601f8301126123a257600080fd5b81356123b28482602086016122ab565b91505092915050565b6000813590506123ca816138a7565b92915050565b6000602082840312156123e257600080fd5b60006123f0848285016122e9565b91505092915050565b6000806040838503121561240c57600080fd5b600061241a858286016122e9565b925050602061242b858286016122e9565b9150509250929050565b60008060006060848603121561244a57600080fd5b6000612458868287016122e9565b9350506020612469868287016122e9565b925050604061247a868287016123bb565b9150509250925092565b6000806000806080858703121561249a57600080fd5b60006124a8878288016122e9565b94505060206124b9878288016122e9565b93505060406124ca878288016123bb565b925050606085013567ffffffffffffffff8111156124e757600080fd5b6124f387828801612367565b91505092959194509250565b6000806040838503121561251257600080fd5b6000612520858286016122e9565b925050602061253185828601612328565b9150509250929050565b6000806040838503121561254e57600080fd5b600061255c858286016122e9565b925050602061256d858286016123bb565b9150509250929050565b60006020828403121561258957600080fd5b60006125978482850161233d565b91505092915050565b6000602082840312156125b257600080fd5b60006125c084828501612352565b91505092915050565b6000602082840312156125db57600080fd5b60006125e9848285016123bb565b91505092915050565b6000806040838503121561260557600080fd5b6000612613858286016123bb565b925050602083013567ffffffffffffffff81111561263057600080fd5b61263c858286016122fe565b9150509250929050565b61264f81613633565b82525050565b61265e81613645565b82525050565b600061266f826134db565b61267981856134f1565b93506126898185602086016136b6565b61269281613851565b840191505092915050565b60006126a8826134e6565b6126b28185613502565b93506126c28185602086016136b6565b6126cb81613851565b840191505092915050565b60006126e1826134e6565b6126eb8185613513565b93506126fb8185602086016136b6565b80840191505092915050565b60008154612714816136e9565b61271e8186613513565b94506001821660008114612739576001811461274a5761277d565b60ff1983168652818601935061277d565b612753856134c6565b60005b8381101561277557815481890152600182019150602081019050612756565b838801955050505b50505092915050565b6000612793603283613502565b91507f4552433732313a207472616e7366657220746f206e6f6e20455243373231526560008301527f63656976657220696d706c656d656e74657200000000000000000000000000006020830152604082019050919050565b60006127f9601c83613502565b91507f4552433732313a20746f6b656e20616c7265616479206d696e746564000000006000830152602082019050919050565b6000612839602483613502565b91507f4552433732313a207472616e7366657220746f20746865207a65726f2061646460008301527f72657373000000000000000000000000000000000000000000000000000000006020830152604082019050919050565b600061289f601983613502565b91507f4552433732313a20617070726f766520746f2063616c6c6572000000000000006000830152602082019050919050565b60006128df606383613513565b91507f222c20226465736372697074696f6e223a20224120686967686c79206163636c60008301527f61696d656420636f6c6c656374696f6e206f6620737175617265732e222c202260208301527f696d616765223a2022646174613a696d6167652f7376672b786d6c3b6261736560408301527f36342c00000000000000000000000000000000000000000000000000000000006060830152606382019050919050565b6000612991600483613513565b91507f574f5244000000000000000000000000000000000000000000000000000000006000830152600482019050919050565b60006129d1602c83613502565b91507f4552433732313a206f70657261746f7220717565727920666f72206e6f6e657860008301527f697374656e7420746f6b656e00000000000000000000000000000000000000006020830152604082019050919050565b6000612a37600d83613513565b91507f3c2f746578743e3c2f7376673e000000000000000000000000000000000000006000830152600d82019050919050565b6000612a77603883613502565b91507f4552433732313a20617070726f76652063616c6c6572206973206e6f74206f7760008301527f6e6572206e6f7220617070726f76656420666f7220616c6c00000000000000006020830152604082019050919050565b6000612add602a83613502565b91507f4552433732313a2062616c616e636520717565727920666f7220746865207a6560008301527f726f2061646472657373000000000000000000000000000000000000000000006020830152604082019050919050565b6000612b43602983613502565b91507f4552433732313a206f776e657220717565727920666f72206e6f6e657869737460008301527f656e7420746f6b656e00000000000000000000000000000000000000000000006020830152604082019050919050565b6000612ba9602e83613502565b91507f45524337323155524953746f726167653a2055524920736574206f66206e6f6e60008301527f6578697374656e7420746f6b656e0000000000000000000000000000000000006020830152604082019050919050565b6000612c0f600283613513565b91507f227d0000000000000000000000000000000000000000000000000000000000006000830152600282019050919050565b6000612c4f602083613502565b91507f4552433732313a206d696e7420746f20746865207a65726f20616464726573736000830152602082019050919050565b6000612c8f603183613502565b91507f45524337323155524953746f726167653a2055524920717565727920666f722060008301527f6e6f6e6578697374656e7420746f6b656e0000000000000000000000000000006020830152604082019050919050565b6000612cf5602c83613502565b91507f4552433732313a20617070726f76656420717565727920666f72206e6f6e657860008301527f697374656e7420746f6b656e00000000000000000000000000000000000000006020830152604082019050919050565b6000612d5b602983613502565b91507f4552433732313a207472616e73666572206f6620746f6b656e2074686174206960008301527f73206e6f74206f776e00000000000000000000000000000000000000000000006020830152604082019050919050565b6000612dc1602f83613502565b91507f4552433732314d657461646174613a2055524920717565727920666f72206e6f60008301527f6e6578697374656e7420746f6b656e00000000000000000000000000000000006020830152604082019050919050565b6000612e27600a83613513565b91507f7b226e616d65223a2022000000000000000000000000000000000000000000006000830152600a82019050919050565b6000612e67602183613502565b91507f4552433732313a20617070726f76616c20746f2063757272656e74206f776e6560008301527f72000000000000000000000000000000000000000000000000000000000000006020830152604082019050919050565b6000612ecd601d83613513565b91507f646174613a6170706c69636174696f6e2f6a736f6e3b6261736536342c0000006000830152601d82019050919050565b6000612f0d603183613502565b91507f4552433732313a207472616e736665722063616c6c6572206973206e6f74206f60008301527f776e6572206e6f7220617070726f7665640000000000000000000000000000006020830152604082019050919050565b612f6f8161369d565b82525050565b6000612f8182856126d6565b9150612f8d82846126d6565b91508190509392505050565b6000612fa582866126d6565b9150612fb182856126d6565b9150612fbd82846126d6565b9150819050949350505050565b6000612fd68285612707565b9150612fe282846126d6565b9150612fed82612a2a565b91508190509392505050565b600061300482612984565b915061301082846126d6565b915081905092915050565b600061302682612e1a565b915061303282856126d6565b915061303d826128d2565b915061304982846126d6565b915061305482612c02565b91508190509392505050565b600061306b82612ec0565b915061307782846126d6565b915081905092915050565b60006020820190506130976000830184612646565b92915050565b60006080820190506130b26000830187612646565b6130bf6020830186612646565b6130cc6040830185612f66565b81810360608301526130de8184612664565b905095945050505050565b60006040820190506130fe6000830185612646565b61310b6020830184612f66565b9392505050565b60006020820190506131276000830184612655565b92915050565b60006020820190508181036000830152613147818461269d565b905092915050565b60006080820190508181036000830152613169818761269d565b9050818103602083015261317d818661269d565b90508181036040830152613191818561269d565b905081810360608301526131a5818461269d565b905095945050505050565b600060608201905081810360008301526131ca818661269d565b90506131d96020830185612f66565b6131e66040830184612646565b949350505050565b6000602082019050818103600083015261320781612786565b9050919050565b60006020820190508181036000830152613227816127ec565b9050919050565b600060208201905081810360008301526132478161282c565b9050919050565b6000602082019050818103600083015261326781612892565b9050919050565b60006020820190508181036000830152613287816129c4565b9050919050565b600060208201905081810360008301526132a781612a6a565b9050919050565b600060208201905081810360008301526132c781612ad0565b9050919050565b600060208201905081810360008301526132e781612b36565b9050919050565b6000602082019050818103600083015261330781612b9c565b9050919050565b6000602082019050818103600083015261332781612c42565b9050919050565b6000602082019050818103600083015261334781612c82565b9050919050565b6000602082019050818103600083015261336781612ce8565b9050919050565b6000602082019050818103600083015261338781612d4e565b9050919050565b600060208201905081810360008301526133a781612db4565b9050919050565b600060208201905081810360008301526133c781612e5a565b9050919050565b600060208201905081810360008301526133e781612f00565b9050919050565b60006020820190506134036000830184612f66565b92915050565b6000604051905081810181811067ffffffffffffffff821117156134305761342f613822565b5b8060405250919050565b600067ffffffffffffffff82111561345557613454613822565b5b602082029050602081019050919050565b600067ffffffffffffffff82111561348157613480613822565b5b601f19601f8301169050602081019050919050565b600067ffffffffffffffff8211156134b1576134b0613822565b5b601f19601f8301169050602081019050919050565b60008190508160005260206000209050919050565b600081519050919050565b600081519050919050565b600082825260208201905092915050565b600082825260208201905092915050565b600081905092915050565b60006135298261369d565b91506135348361369d565b9250827fffffffffffffffffffffffffffffffffffffffffffffffffffffffffffffffff0382111561356957613568613795565b5b828201905092915050565b600061357f8261369d565b915061358a8361369d565b92508261359a576135996137c4565b5b828204905092915050565b60006135b08261369d565b91506135bb8361369d565b9250817fffffffffffffffffffffffffffffffffffffffffffffffffffffffffffffffff04831182151516156135f4576135f3613795565b5b828202905092915050565b600061360a8261369d565b91506136158361369d565b92508282101561362857613627613795565b5b828203905092915050565b600061363e8261367d565b9050919050565b60008115159050919050565b60007fffffffff0000000000000000000000000000000000000000000000000000000082169050919050565b600073ffffffffffffffffffffffffffffffffffffffff82169050919050565b6000819050919050565b82818337600083830152505050565b60005b838110156136d45780820151818401526020810190506136b9565b838111156136e3576000848401525b50505050565b6000600282049050600182168061370157607f821691505b60208210811415613715576137146137f3565b5b50919050565b60006137268261369d565b91507fffffffffffffffffffffffffffffffffffffffffffffffffffffffffffffffff82141561375957613758613795565b5b600182019050919050565b600061376f8261369d565b915061377a8361369d565b92508261378a576137896137c4565b5b828206905092915050565b7f4e487b7100000000000000000000000000000000000000000000000000000000600052601160045260246000fd5b7f4e487b7100000000000000000000000000000000000000000000000000000000600052601260045260246000fd5b7f4e487b7100000000000000000000000000000000000000000000000000000000600052602260045260246000fd5b7f4e487b7100000000000000000000000000000000000000000000000000000000600052604160045260246000fd5b6000601f19601f8301169050919050565b61386b81613633565b811461387657600080fd5b50565b61388281613645565b811461388d57600080fd5b50565b61389981613651565b81146138a457600080fd5b50565b6138b08161369d565b81146138bb57600080fd5b5056fe416e204e465420772f20494420257320686173206265656e206d696e74656420746f2025735573696e672074686520666f6c6c6f77696e6720776f7264733a2025732c2025732c2025734142434445464748494a4b4c4d4e4f505152535455565758595a6162636465666768696a6b6c6d6e6f707172737475767778797a303132333435363738392b2fa2646970667358221220e942d5ec93f16b4d567323ca2d7a38a49beae48061619925b6154b7969e19a9a64736f6c634300080000333c73766720786d6c6e733d27687474703a2f2f7777772e77332e6f72672f323030302f73766727207072657365727665417370656374526174696f3d27784d696e594d696e206d656574272076696577426f783d273020302033353020333530273e3c7374796c653e2e62617365207b2066696c6c3a2077686974653b20666f6e742d66616d696c793a2073657269663b20666f6e742d73697a653a20323470783b207d3c2f7374796c653e3c726563742077696474683d273130302527206865696768743d2731303025272066696c6c3d27626c61636b27202f3e3c7465787420783d273530252720793d273530252720636c6173733d27626173652720646f6d696e616e742d626173656c696e653d276d6964646c652720746578742d616e63686f723d276d6964646c65273e",
  "linkReferences": {},
  "deployedLinkReferences": {}
}